:020000040800F2
:10000000F84F0020210C00083104000831040008DA
:100010003104000831040008310400080000000029
:100020000000000000000000000000003104000893
:100030003104000800000000310400083104000809
:100040001C4B02461B68084603F03003302B30B5CA
:100050002DD0194C0131236849109BB25B0003F18C
:10006000804303F5C0431B8802EB41015B0003F1B1
:10007000804303F5C043914214D123680F4A9BB2D9
:100080005B00D050A2F20442136823F4E04323F053
:1000900040039BB283F0300343F4004343F08003FA
:1000A000136030BD32F8025B43F8045BE3E70020E5
:1000B000F7E700BF005C0040505C00400460004077
:1000C000284B02461B68084603F44053B3F5405FD3
:1000D000F0B544D0244B254C196889B249006158C9
:1000E000C1F30901814205DA196889B249006058F3
:1000F000C0F309001B681E499BB25B00CB5A440841
:100100005B0003F1804303F5C0431D4600F0010688
:1001100002EB440191421DD116B113F824300B704B
:10012000104A136823F0F0031B051B0D43F08003F6
:100130001360104B1B7863B9136823F4804323F0DA
:1001400070039BB283F4405343F4004343F08003B5
:100150001360F0BD35F8047B22F8027BDAE700205B
:10016000F7E700BF005C0040505C00400C600040BE
:100170000860004034040020F8B5104C104F21886E
:100180003D8810484029104E28440AD94021FFF7E5
:1001900057FF02233370238840353D80403B238046
:1001A000F8BDFFF74DFF094A1378002B14BF022357
:1001B0000323337000231370F1E700BF0600002013
:1001C00004000020480400203C0400203D040020DE
:1001D00010B5002833D1002914BF102420242B4A45
:1001E000136823F4E04323F0400363401BB243F45D
:1001F000004343F080039BB21360800000F1804015
:1002000000F5B84039B9036823F4415323F03003B3
:100210001B041B0C0360002914BF4FF480524FF4E1
:100220004052036823F4804323F0700353401BB211
:1002300043F4004343F080039BB2036024E00306D1
:10024000DBD5002914BF1021202100F07F034FEAE5
:10025000830303F1804303F5B8431A6822F4E042B4
:1002600022F0400282EA010212B242F4004242F05D
:10027000800292B21A6007D11A6822F4E04222F09A
:1002800030021204120C1A6010BD00BF005C004066
:1002900008B501210020FFF79BFF0022014B1A70D7
:1002A00008BD00BF3C04002070B50D4A0D4ED48837
:1002B00033880D48E41A402CA8BF4024A5B2294633
:1002C0001844FFF7FDFE854204D0FFF7E1FF4FF031
:1002D000FF3070BD3188A0B20D443580F9E700BF12
:1002E0004004002006000020480400200B4B194663
:1002F0001A68D207FCD40A4B1A6842F002021A604C
:10030000084A10601A6842F040021A600A68D20770
:10031000FCD41A6822F002021A6070470C200240D6
:10032000102002401420024070B5394D2B78042B68
:100330002CD1384C384A236843F080032360374B74
:100340001A6002F188321A60354BB3F808041E4671
:1003500010BB1A78212A1AD0412A11D1D3F80100F2
:10036000304B98420CD300F5806203F5E0339A429B
:1003700006D803461968013143D104339A42F9D1B2
:10038000236843F08003236005232B7070BDD3F8EE
:100390000120C3F80424F3E7D3F80434023803EB54
:1003A0008020204B9842EBD3B6F800341E4A034419
:1003B0009342E5D8034600F580621968013123D1E4
:1003C00004339342F9D1194AB6F80034114616683D
:1003D000F607FCD422685B0842F001022260104A52
:1003E00000EB4303984204D1236823F00103236008
:1003F000C6E732F8026B06800E68F607FCD40230BE
:10040000F0E7FFF773FFBBE7FFF770FFDBE700BF25
:100410000000002010200240230167450420024014
:100420000800002000400008000002080C200240E4
:10043000FEE703460246D01A12F8011B0029FAD142
:100440007047000038B5A24C227802F07F03212BC0
:1004500079D1E1889F4B60788DB21980062872D8D7
:10046000DFE800F031043446276A2D001DB906226A
:10047000994B1A7038BDA278E478984B42EA04226E
:10048000B5F5806FA3F808248ABF4FF48062A3F803
:100490000014A3F80024B3F800349049904A013BBB
:1004A00002D203228C4BE4E712F8014B01F8014B16
:1004B000F5E7894B1A780A2A02D00120DAE7864B41
:1004C00002221A70F9E70722834BFAE70921824AD0
:1004D0001170618841B9824A117021215170412106
:1004E000917003221A80E8E70A2111700022F9E7CF
:1004F00079480278062A16D00A2A18D0032A18D179
:100500000422642402700022754900780A700022D7
:100510008A70CA704A7106221A80724B724A4C70F5
:1005200008711A60C9E7072200240270EBE7002473
:10053000EAE700242246E7E70120674A1178684A83
:100540001170188096E712F0600017D102F01F03B7
:10055000012B00F08980022B00F09880002B89D1BC
:100560006378092B0AD8DFE803F077090909090540
:100570002909240B12B963887F2B9ED9002079E7C3
:100580006388012BFAD148F28001584A584D594CE2
:10059000594813682B400B439BB2136013682340E8
:1005A0000B439BB242F8043B8242F2D1C022534B30
:1005B00098E701204A4B1870464BC2E76388190A36
:1005C00002290BD003291BD00129D7D11223444A79
:1005D0004B49013B0AD212223E4B83E71C23404980
:1005E000484A013B07D11B223A4B7BE711F8010B2C
:1005F00002F8010BEDE712F8010B01F8010BF0E72F
:10060000374A13F0FF031546517007D10923937041
:1006100004231370D3702F4A13804EE7013B042B41
:10062000ACDC40F20942A1889142A7D1364A52F887
:1006300023402046FFF7FDFE431C264A5B00DBB249
:100640002B701380002383423FF437AFE15C05EB4E
:10065000430251800133F6E702221E4B1A8000222A
:100660001F4B1A705A7028E762780A2AA1D00B2A09
:1006700009D0002A7FF4FEAE0222164B1A80184BD6
:1006800018705870F6E6134A108016E7617801F08A
:10069000FD05012D3AD000297FF4ECAEA288D3B23B
:1006A00012063FD503F07F039B0003F1804303F55F
:1006B000B8431B6803F03003102B14BF0023012341
:1006C000074A1370002353700222024B0AE700BF4F
:1006D0004004002006000020000000200800002048
:1006E000480400203004002029030008045C004076
:1006F000BF8FFFFF8FBFFFFF205C00403E04002044
:100700000F0D0008F40C0008E00C00086388002BB3
:100710007FF434AFA088CC1E61426141C0B2FFF7C4
:1007200057FDCAE69B0003F1804303F5B8431B68FD
:1007300003F44053B3F5805FBFE700BF0000000043
:100740002DE98748C6A5D5E90045A14AD2E90001AF
:10075000A94208BFA04200F0008101209D490B681A
:1007600043F008030B609C4B196821F00F0141F026
:1007700008011960994908604FF40070194600BFDC
:100780000138FCD1964B1B680868DB4320F00F0052
:10079000086003F001039348016841F08071016033
:1007A00093B99148914904682140B1F1005F0BD1A0
:1007B000C2E900334FF480428D4B1A60036883F323
:1007C00008888C4B1B6898478B4B1A6842F4803220
:1007D0001A601A689103FCD58849894A0868024062
:1007E00042F4EE12874842F480620A60026822F006
:1007F000070242F0020202601A6842F080721A6038
:100800001A689201FCD50B687F4E23F0030343F076
:1008100002030B6002236F4A3360136843F0040342
:100820001360A2F5843252F8143C143A23F4702376
:1008300043F4003313604FF08052744B1A60744BD2
:1008400000BF013BFCD1734A734B7448744C197858
:1008500002320909415C02F8021C19460978013389
:1008600001F00F01415CA34202F8011CEFD16D4A77
:100870006D4F13686D4C43F4000313600023336025
:100880003B6023604FF41C43694D3360226812F4CF
:10089000806B1FFA82FA62D04FF6FF33402123604B
:1008A000644B48F280001A684FF0800C22F4E0425A
:1008B00022F07F0292B21A601A6822F4EC4222F00F
:1008C000700242F4007292B21A603A6892B2520018
:1008D00002F1804202F5C04211601A68564922F4C2
:1008E000E04222F030021204120C1A601A6822F45C
:1008F000E04222F0400292B282F0200202431A60EB
:100900003A6892B2520041F802C039684B4A89B243
:1009100049000A444FF4084111601A6822F4415218
:1009200022F030021204120C1A601A6822F480427B
:1009300022F0700292B282F4405202431A60C02246
:100940003F4B1A803F4BC3F800C03F4B1B78072B2F
:100950009CD13E4B3E4A1A60FEE701231BE713047D
:1009600040F1CB8002F00F039B0003F1804303F5BD
:10097000B84312F01002196800F00C8111F40068FD
:1009800000F0D280334B344AC3F800B00123DFF8C3
:10099000A4901370D9F80030082123F4804323F089
:1009A00070039BB283F4005343F4004343F080038D
:1009B000C9F80030294B1846FFF782FB0828274B5F
:1009C000254A51D0FFF764FC97E000BFAFF30080E9
:1009D000F84F002018100240000C0140100C01409C
:1009E000080C014024100240004000080000FE2FC7
:1009F00008ED00E00440000800100240041002402E
:100A00000F00C0FF00200240405C00401008014081
:100A1000A086010014040020E8F7FF1F210D000844
:100A2000F4F7FF1F1C100240505C0040445C004083
:100A30003C040020005C0040086000400C60004066
:100A40003E0400204C5C0040000000200CED00E063
:100A50000400FA0530040020340400204004002083
:100A6000EEFF00CCEFBEADDED9881FFA81F8B8F1F9
:100A7000000F03D093F90030002B20DA0022604BE6
:100A800001911A80FFF7DEFC00289BD05D4B1A888D
:100A9000424584BF01991980B8F1000F62D01B88CC
:100AA00098450AD923B113F03F0F0CBF012300234F
:100AB000554A1370FFF760FB1FE00023F8E7B8F515
:100AC000806F3FF67FAF4F4BB8F1400FA3F800B0F7
:100AD0008CBF0523062382F800B02B70D9F80030B4
:100AE00023F4804323F070039BB283F4405343F418
:100AF000004343F08003C9F800301AF4006F1CBFB4
:100B00004FF2FF7323601AF4805F1CBF4EF6FF7331
:100B100023601AF4007F1CBF4FF6FF532360336835
:100B200023F40073336010E72B78062B11D0072BCA
:100B30001FD0052B7FF446AFFFF7B6FB0028DCDBA8
:100B4000324B304ADB8812889B1A402BD5DC0623B7
:100B50000DE0FFF7A9FB0028CFDBFFF773FC0028AF
:100B60003FF430AF00210846FFF76AFA04232B70E8
:100B7000C3E741464046FFF7A3FA85F80080DFF857
:100B80009880D8F800300BB1204898470023C8F867
:100B90000030B2E721F0F0010905090D41F40041F0
:100BA00019602B78032B05D0042B16D0022B7FF471
:100BB00009AF7FE707232B70154B1A70154A13688E
:100BC00023F4804323F070039BB283F4405343F437
:100BD000004343F0800313608FE70F4B1B680BB19A
:100BE0000A489847094B1A7842B95A78052A05D11C
:100BF0005B880A4ADBB243F0800313600023B6E748
:100C000004000020060000203D04002040040020D5
:100C100034040020005C0040300400204C5C0040A4
:100C20000B4B0C4A0C498B420AD300210B4A9342CE
:100C30000BD30B4A136843F400731360FFF780FD76
:100C400052F8040B43F8040BEDE743F8041BEEE7FE
:100C500000000020340D0008040000204808002097
:100C600014ED00E0646176696467662E6E65742039
:100C7000286C69626F70656E636D332062617365A5
:100C800064290044465520626F6F746C6F6164651F
:100C900072205B76312E322E305D0040496E7465D5
:100CA000726E616C20466C617368202F307830382A
:100CB0003030303030302F31362A3030314B612CEB
:100CC0003131322A3030314B6700426F6F746C6FB4
:100CD0006164657220636F6E6669673A2000000088
:100CE000640C0008830C0008140400209B0C00080E
:100CF000CA0C000809021B00010105C032090400EA
:100D00000000FE010204092109FF0000041A01127B
:100D100001000200000040ADDE5DCA0002010203D6
:100D200001303132333435363738396162636465C6
:040D30006600000059
:040D340002000000B9
:0400000508000C21C2
:00000001FF
